{
  "contractName": "InventoryChain",
  "abi": [
    {
      "anonymous": false,
      "inputs": [
        {
          "indexed": true,
          "internalType": "string",
          "name": "id",
          "type": "string"
        },
        {
          "indexed": false,
          "internalType": "string",
          "name": "batchNum",
          "type": "string"
        },
        {
          "indexed": false,
          "internalType": "string",
          "name": "drugName",
          "type": "string"
        },
        {
          "indexed": false,
          "internalType": "address",
          "name": "manufacturer",
          "type": "address"
        },
        {
          "indexed": false,
          "internalType": "uint256",
          "name": "timestamp",
          "type": "uint256"
        },
        {
          "indexed": false,
          "internalType": "string",
          "name": "status",
          "type": "string"
        }
      ],
      "name": "BatchLogged",
      "type": "event"
    },
    {
      "inputs": [
        {
          "internalType": "uint256",
          "name": "",
          "type": "uint256"
        }
      ],
      "name": "batchIds",
      "outputs": [
        {
          "internalType": "string",
          "name": "",
          "type": "string"
        }
      ],
      "stateMutability": "view",
      "type": "function",
      "constant": true
    },
    {
      "inputs": [
        {
          "internalType": "string",
          "name": "",
          "type": "string"
        }
      ],
      "name": "batches",
      "outputs": [
        {
          "internalType": "string",
          "name": "batchNum",
          "type": "string"
        },
        {
          "internalType": "string",
          "name": "drugName",
          "type": "string"
        },
        {
          "internalType": "address",
          "name": "manufacturer",
          "type": "address"
        },
        {
          "internalType": "uint256",
          "name": "timestamp",
          "type": "uint256"
        },
        {
          "internalType": "string",
          "name": "status",
          "type": "string"
        }
      ],
      "stateMutability": "view",
      "type": "function",
      "constant": true
    },
    {
      "inputs": [
        {
          "internalType": "string",
          "name": "_id",
          "type": "string"
        },
        {
          "internalType": "string",
          "name": "_batchNum",
          "type": "string"
        },
        {
          "internalType": "string",
          "name": "_drugName",
          "type": "string"
        },
        {
          "internalType": "string",
          "name": "_status",
          "type": "string"
        }
      ],
      "name": "logBatch",
      "outputs": [],
      "stateMutability": "nonpayable",
      "type": "function"
    },
    {
      "inputs": [
        {
          "internalType": "string",
          "name": "_id",
          "type": "string"
        }
      ],
      "name": "getBatch",
      "outputs": [
        {
          "internalType": "string",
          "name": "",
          "type": "string"
        },
        {
          "internalType": "string",
          "name": "",
          "type": "string"
        },
        {
          "internalType": "address",
          "name": "",
          "type": "address"
        },
        {
          "internalType": "uint256",
          "name": "",
          "type": "uint256"
        },
        {
          "internalType": "string",
          "name": "",
          "type": "string"
        }
      ],
      "stateMutability": "view",
      "type": "function",
      "constant": true
    }
  ],
  "bytecode": "0x608060405234801561001057600080fd5b50610b54806100206000396000f3fe608060405234801561001057600080fd5b506004361061004c5760003560e01c80637ef1446a14610051578063ab63bdb21461007e578063b3d346b914610093578063f9ca4274146100b3575b600080fd5b61006461005f3660046107f1565b6100c6565b60405161007595949392919061087e565b60405180910390f35b61009161008c3660046108d9565b6102a5565b005b6100a66100a1366004610986565b6103f7565b604051610075919061099f565b6100646100c13660046107f1565b6104a3565b80516020818301810180516000825292820191909301209152805481906100ec906109b9565b80601f0160208091040260200160405190810160405280929190818152602001828054610118906109b9565b80156101655780601f1061013a57610100808354040283529160200191610165565b820191906000526020600020905b81548152906001019060200180831161014857829003601f168201915b50505050509080600101805461017a906109b9565b80601f01602080910402602001604051908101604052809291908181526020018280546101a6906109b9565b80156101f35780601f106101c8576101008083540402835291602001916101f3565b820191906000526020600020905b8154815290600101906020018083116101d657829003601f168201915b505050506002830154600384015460048501805494956001600160a01b039093169491935090610222906109b9565b80601f016020809104026020016040519081016040528092919081815260200182805461024e906109b9565b801561029b5780601f106102705761010080835404028352916020019161029b565b820191906000526020600020905b81548152906001019060200180831161027e57829003601f168201915b5050505050905085565b6040518060a00160405280848152602001838152602001336001600160a01b03168152602001428152602001828152506000856040516102e591906109f3565b908152604051908190036020019020815181906103029082610a5e565b50602082015160018201906103179082610a5e565b5060408201516002820180546001600160a01b0319166001600160a01b03909216919091179055606082015160038201556080820151600482019061035c9082610a5e565b50506001805480820182556000919091527fb10e2d527612073b26eecdfd717e6a320cf44b4afac2b0732d9fcbe2b7fa0cf601905061039b8582610a5e565b50836040516103aa91906109f3565b60405180910390207f50b61e13af2bbc5622f1afda90a93e8a9ca8c5f59e7d462efad0d2e15ce4f99a84843342866040516103e995949392919061087e565b60405180910390a250505050565b6001818154811061040757600080fd5b906000526020600020016000915090508054610422906109b9565b80601f016020809104026020016040519081016040528092919081815260200182805461044e906109b9565b801561049b5780601f106104705761010080835404028352916020019161049b565b820191906000526020600020905b81548152906001019060200180831161047e57829003601f168201915b505050505081565b6060806000806060600080876040516104bc91906109f3565b908152602001604051809103902060040180546104d8906109b9565b9050116105225760405162461bcd60e51b815260206004820152601460248201527310985d18da08191bd95cc81b9bdd08195e1a5cdd60621b604482015260640160405180910390fd5b6000808760405161053391906109f3565b90815260200160405180910390206040518060a001604052908160008201805461055c906109b9565b80601f0160208091040260200160405190810160405280929190818152602001828054610588906109b9565b80156105d55780601f106105aa576101008083540402835291602001916105d5565b820191906000526020600020905b8154815290600101906020018083116105b857829003601f168201915b505050505081526020016001820180546105ee906109b9565b80601f016020809104026020016040519081016040528092919081815260200182805461061a906109b9565b80156106675780601f1061063c57610100808354040283529160200191610667565b820191906000526020600020905b81548152906001019060200180831161064a57829003601f168201915b505050918352505060028201546001600160a01b03166020820152600382015460408201526004820180546060909201916106a1906109b9565b80601f01602080910402602001604051908101604052809291908181526020018280546106cd906109b9565b801561071a5780601f106106ef5761010080835404028352916020019161071a565b820191906000526020600020905b8154815290600101906020018083116106fd57829003601f168201915b5050509190925250508151602083015160408401516060850151608090950151929c919b5099509297509550909350505050565b634e487b7160e01b600052604160045260246000fd5b600082601f83011261077557600080fd5b813567ffffffffffffffff808211156107905761079061074e565b604051601f8301601f19908116603f011681019082821181831017156107b8576107b861074e565b816040528381528660208588010111156107d157600080fd5b836020870160208301376000602085830101528094505050505092915050565b60006020828403121561080357600080fd5b813567ffffffffffffffff81111561081a57600080fd5b61082684828501610764565b949350505050565b60005b83811015610849578181015183820152602001610831565b50506000910152565b6000815180845261086a81602086016020860161082e565b601f01601f19169290920160200192915050565b60a08152600061089160a0830188610852565b82810360208401526108a38188610852565b6001600160a01b038716604085015260608401869052838103608085015290506108cd8185610852565b98975050505050505050565b600080600080608085870312156108ef57600080fd5b843567ffffffffffffffff8082111561090757600080fd5b61091388838901610764565b9550602087013591508082111561092957600080fd5b61093588838901610764565b9450604087013591508082111561094b57600080fd5b61095788838901610764565b9350606087013591508082111561096d57600080fd5b5061097a87828801610764565b91505092959194509250565b60006020828403121561099857600080fd5b5035919050565b6020815260006109b26020830184610852565b9392505050565b600181811c908216806109cd57607f821691505b6020821081036109ed57634e487b7160e01b600052602260045260246000fd5b50919050565b60008251610a0581846020870161082e565b9190910192915050565b601f821115610a5957600081815260208120601f850160051c81016020861015610a365750805b601f850160051c820191505b81811015610a5557828155600101610a42565b5050505b505050565b815167ffffffffffffffff811115610a7857610a7861074e565b610a8c81610a8684546109b9565b84610a0f565b602080601f831160018114610ac15760008415610aa95750858301515b600019600386901b1c1916600185901b178555610a55565b600085815260208120601f198616915b82811015610af057888601518255948401946001909101908401610ad1565b5085821015610b0e5787850151600019600388901b60f8161c191681555b5050505050600190811b0190555056fea2646970667358221220753e59ffc9f4493fc2a7550dba56536a3d2af3316016b4a1b0cd86bbb3ca74d364736f6c63430008130033",
  "immutableReferences": {},
  "source": "// SPDX-License-Identifier: MIT\npragma solidity ^0.8.0;\n\ncontract InventoryChain {\n    // Structure to represent a tracked batch\n    struct DrugBatch {\n        string batchNum;\n        string drugName;\n        address manufacturer;\n        uint256 timestamp;\n        string status;\n    }\n\n    // Mapping to store batches by a unique string ID (e.g., Supabase ID or QR hash)\n    mapping(string => DrugBatch) public batches;\n    \n    // An array simply to keep track of how many IDs were registered (optional)\n    string[] public batchIds;\n\n    // Event emitted when a batch is logged to the blockchain\n    event BatchLogged(string indexed id, string batchNum, string drugName, address manufacturer, uint256 timestamp, string status);\n\n    // Function to add a new batch or update its status immutably\n    function logBatch(string memory _id, string memory _batchNum, string memory _drugName, string memory _status) public {\n        // Here, we just overwrite/update the mapping, but the transaction log (event) is permanent.\n        batches[_id] = DrugBatch({\n            batchNum: _batchNum,\n            drugName: _drugName,\n            manufacturer: msg.sender,\n            timestamp: block.timestamp,\n            status: _status\n        });\n\n        batchIds.push(_id);\n\n        emit BatchLogged(_id, _batchNum, _drugName, msg.sender, block.timestamp, _status);\n    }\n\n    // Function to retrieve the latest block state for a batch ID\n    function getBatch(string memory _id) public view returns (string memory, string memory, address, uint256, string memory) {\n        require(bytes(batches[_id].status).length > 0, \"Batch does not exist\");\n        DrugBatch memory batch = batches[_id];\n        return (batch.batchNum, batch.drugName, batch.manufacturer, batch.timestamp, batch.status);\n    }\n}\n",
  "sourcePath": "C:\\Users\\KETAN\\Downloads\\inventory-management-system\\contracts\\InventoryChain.sol",
  "compiler": {
    "name": "solc",
    "version": "0.8.19+commit.7dd6d404.Emscripten.clang"
  },
  "schemaVersion": "3.4.16",
  "updatedAt": "2026-03-31T10:22:02.288Z",
  "networkType": "ethereum",
  "devdoc": {
    "kind": "dev",
    "methods": {},
    "version": 1
  },
  "userdoc": {
    "kind": "user",
    "methods": {},
    "version": 1
  }
}